:020000040800F2
:100000008006002089010008910100089301000882
:100010009501000897010008990100080000000000
:100020000000000000000000000000009B0100082C
:100030009D010008000000009F0100082D0300083A
:10004000A3010008A3010008A3010008A301000800
:10005000A3010008A3010008A3010008A3010008F0
:10006000A3010008A3010008A3010008A3010008E0
:10007000A3010008A3010008A3010008A3010008D0
:10008000A3010008A3010008A3010008A3010008C0
:10009000A3010008A3010008A3010008A3010008B0
:1000A000A3010008A3010008A3010008A3010008A0
:1000B000A3010008A301000800000000A30100083C
:1000C000A30100080000000000000000A3010008D8
:1000D00000000000A3010008A301000800000000C8
:1000E000A3010008A3010008A301000800F002F822
:1000F00000F03AF80AA090E8000C82448344AAF188
:100100000107DA4501D100F02FF8AFF2090EBAE885
:100110000F0013F0010F18BFFB1A43F0010318473B
:100120001404000034040000103A24BF78C878C1D9
:10013000FAD8520724BF30C830C144BF04680C60ED
:10014000704700000023002400250026103A28BF35
:1001500078C1FBD8520728BF30C148BF0B60704739
:100160001FB51FBD10B510BD00F031F81146FFF7E7
:10017000F7FF00F03BF900F04FF803B4FFF7F2FF90
:1001800003BC00F057F800000948804709480047C1
:10019000FEE7FEE7FEE7FEE7FEE7FEE7FEE7FEE737
:1001A000FEE7FEE704480549054A064B7047000094
:1001B0003D030008ED0000088000002080060020BC
:1001C000800200208002002070477047704775460B
:1001D00000F02CF8AE4605006946534620F00700B3
:1001E000854618B020B5FFF7DDFFBDE820404FF091
:1001F00000064FF000074FF000084FF0000B21F011
:100200000701AC46ACE8C009ACE8C009ACE8C009DD
:10021000ACE8C0098D46704710B50446AFF30080C6
:100220002046BDE81040FFF7A8BF00000048704717
:100230001C00002001491820ABBEFEE7260002008A
:10024000704710B500F002F810BD00000CB500209A
:10025000019000903348006840F4803031490860D4
:1002600000BF3048006800F4003000900198401C46
:100270000190009818B90198B0F5A06FF1D1294804
:10028000006800F4003010B10120009001E000206F
:1002900000900098012843D12348006840F01000E6
:1002A000214908600846006820F0030008600846FD
:1002B000006840F0020008601A4840681949486028
:1002C0000846406848600846406840F480604860DE
:1002D0000846406820F47C1048600846406840F4B6
:1002E000E81048600846006840F08070086000BF71
:1002F0000C48006800F000700028F9D009484068F8
:1003000020F00300074948600846406840F00200BA
:10031000486000BF0348406800F00C000828F9D18D
:100320000CBD00000010024000200240024800689E
:10033000401C0149086070470400002010B51348B4
:10034000006840F001001149086008464068104903
:1003500008400E494860084600680E4908400B49AD
:1003600008600846006820F480200860084640685D
:1003700020F4FE0048604FF41F008860FFF761FF23
:100380004FF000600449086010BD000000100240FA
:100390000000FFF8FFFFF6FE08ED00E010B5104882
:1003A000006840F2E731B0FBF1F04FF0E021486126
:1003B00048170F21002804DB0A07130E094A1354BB
:1003C00006E00A07140E084A00F00F031B1FD4545E
:1003D00000BF00204FF0E02188610620086110BDB9
:1003E0000800002000E400E018ED00E02B488069E0
:1003F00040F00400294988610846806940F00800FF
:1004000088610846806940F480408861244800681B
:100410000020234908604FF4946008602148006878
:1004200000202049086022200860FFF7B7FF00F095
:100430003FF832E01C48008820F020001A4908806C
:1004400000F06AF81949087008460078302807D18A
:1004500001201449143108600220091F08601CE0C3
:1004600012480078312807D102200E491431086063
:100470000120091F086010E00C480078322806D1DE
:1004800002200849143108600120086005E00220BC
:1004900004491031086001200860CBE700100240D9
:1004A00004080140000C0140003801400000002019
:1004B0001848008840F40050164908800846008813
:1004C00040F0040008800846008840F008000880DA
:1004D0000846008820F48050088040F24130091F0F
:1004E00008800C48001D008820F480500949091D2F
:1004F00008800846008820F400500880081D008805
:1005000020F40070091D08800846008820F48070DF
:10051000088070470C38014000BF0548008800F093
:1005200020000028F9D00248001D0088C0B27047A2
:100530000038014054050008000000201C000000A5
:1005400028010008700500081C0000206406000057
:1005500044010008000000000000000000A24A045E
:100560000000000000000000010203040607080963
:040000050800018965
:00000001FF
